{"l1_gas_used":"7041","priority_fee":null,"raw_input":"0x7cd4473400000000000000000000000027a16dc786820b16e5c9028b75b99f6f604b5d260000000000000000000000001493e7b8d4dfade0a178dad9335470337a3a219a79258f03d95d5026be822f497cb13e4bcaa88c7db304e54bdf4e31bda967a0e8000000000000000000000000000000000000000000000000000000000000000000000000000000000000000000000000000000000000000000000000000000e000000000000000000000000000000000000000000000000000000000000004800000000000000000000000000000000000000000000000000000000000113e10000000000000000000000000000000000000000000000000000000000000036c00000000000903ae0000759e0000000000000000000000000000000000000000000000000000000000035fc10000000000000000000000001231deb6f5749ef6ce6943a275a1d3e7486f4eae9460bca73455dbce43c96885650de9aa4dee7509dd021165df6c30566e95d12800000000000000000000000000000000000000000000000000000000000000600000000000000000000000007e14104e2433fde49c98008911298f069c9de41a00000000000000000000000000000000000000000000000000000000000000010000000000000000000000000000000000000000000000000000000000000020000000000000000000000000b21d8ed1a7e2c7d919f50bc2a4b547bc66faa669000000000000000000000000b21d8ed1a7e2c7d919f50bc2a4b547bc66faa669000000000000000000000000833589fcd6edb6e08f4c7c32d4f71b54bda02913000000000000000000000000833589fcd6edb6e08f4c7c32d4f71b54bda02913000000000000000000000000000000000000000000000000000000000003065500000000000000000000000000000000000000000000000000000000000000e000000000000000000000000000000000000000000000000000000000000000010000000000000000000000000000000000000000000000000000000000000164773054ac0000000000000000000000007e14104e2433fde49c98008911298f069c9de41a0000000000000000000000007bfa7c4f149e7415b73bdedfe609237e29cbf34a000000000000000000000000833589fcd6edb6e08f4c7c32d4f71b54bda02913000000000000000000000000000000000000000000000000000000000002d7c5000000000000000000000000000000000000000000000000000000000000000900000000000000000000000000000000000000000000000000000000698472a800000000000000000000000000000000000000000000000000000000000000e000000000000000000000000000000000000000000000000000000000000000415bf57d1432093d9c0f4b6fabce02fc01256210ae46ccd9a49eea512d2410471f497aeb7d7589782929efee01007c85381c0eb10c280e0e05838b35a9abb041141b000000000000000000000000000000000000000000000000000000000000000000000000000000000000000000000000000000000000000000000000000000000000000000000000000000000000000000000000000000000000000000000000000000000000000000000000000000","is_pending_update":false,"op_withdrawals":[],"result":"success","hash":"0x61af0e2bc5e7a3665009912dab43e718c77e4ab65f0b124a32cefbd48bb54b20","max_fee_per_gas":null,"revert_reason":null,"confirmation_duration":[0,2.0e3],"transaction_burnt_fee":null,"type":0,"token_transfers_overflow":false,"confirmations":35551,"position":207,"max_priority_fee_per_gas":null,"transaction_tag":null,"created_contract":null,"value":"0","l1_fee_scalar":"0","from":{"ens_domain_name":null,"hash":"0xe93685f3bBA03016F02bD1828BaDD6195988D950","implementations":[],"is_contract":false,"is_scam":false,"is_verified":false,"metadata":{"tags":[{"meta":{"tagIcon ":"https://blockscout-icons.s3.us-east-1.amazonaws.com/OLI_tag_logo.svg","textColor":"#C163D4","tooltipAttribution":"https://www.openlabelsinitiative.org?utm_source=blockscout","tooltipAttributionIcon":"https://blockscout-icons.s3.us-east-1.amazonaws.com/OLI_tag_logo.svg","tooltipDescription":"Provided by OLI","tooltipUrl":"https://layerzero.network/"},"name":"Layer Zero: Executor","ordinal":10,"slug":"layer-zero-executor","tagType":"name"},{"meta":{"appActionButtonText":"LayerZero","appID":"layerzero"},"name":"LayerZero","ordinal":0,"slug":"layerzero","tagType":"protocol"}]},"name":null,"private_tags":[],"proxy_type":null,"public_tags":[],"reputation":"ok","watchlist_names":[]},"gas_used":"612002","status":"ok","to":{"ens_domain_name":null,"hash":"0x2CCA08ae69E0C44b18a57Ab2A87644234dAebaE4","implementations":[{"address_hash":"0x2c17394025421a670AAE4dd24b3E2fD44Cf98890","name":null}],"is_contract":true,"is_scam":false,"is_verified":true,"metadata":{"tags":[{"meta":{"projectName":"LayerZero v2","tagUrl":"https://app.klerosscout.eth.limo/#/?registry=Single_Tags&itemdetails=0x97f2385492921aa8bcb36916d852b89f101c73708e81442f63ea2a6c24dd2566@0x66260c69d03837016d88c9877e61e08ef74c59f2","tooltipDescription":"A contract responsible for executing received cross-chain messages automatically with a specified gas limit and msg.value for a fee.","tooltipUrl":"https://layerzero.network/"},"name":"LayerZero v2: LZ Executor","ordinal":10,"slug":"layerzero-v2-lz-executor","tagType":"name"},{"meta":{"alertStatus":"info","data":"This nametag was submitted by Kleros Scout."},"name":"note_0","ordinal":0,"slug":"note0","tagType":"note"},{"meta":{},"name":"LayerZero v2","ordinal":0,"slug":"layerzero-v2","tagType":"protocol"}]},"name":"OptimizedTransparentUpgradeableProxy","private_tags":[],"proxy_type":"eip1967","public_tags":[],"reputation":"ok","watchlist_names":[]},"authorization_list":[],"l1_fee":"6521148200","method":"compose302","fee":{"type":"actual","value":"12230733552476"},"actions":[],"gas_limit":"2055313","gas_price":"19974138","decoded_input":{"method_call":"compose302(address _from, address _to, bytes32 _guid, uint16 _index, bytes _message, bytes _extraData, uint256 _gasLimit)","method_id":"7cd44734","parameters":[{"name":"_from","type":"address","value":"0x27a16dc786820B16E5c9028b75B99F6f604b5d26"},{"name":"_to","type":"address","value":"0x1493e7B8d4DfADe0a178dAD9335470337A3a219A"},{"name":"_guid","type":"bytes32","value":"0x79258f03d95d5026be822f497cb13e4bcaa88c7db304e54bdf4e31bda967a0e8"},{"name":"_index","type":"uint16","value":"0"},{"name":"_message","type":"bytes","value":"0x00000000000903ae0000759e0000000000000000000000000000000000000000000000000000000000035fc10000000000000000000000001231deb6f5749ef6ce6943a275a1d3e7486f4eae9460bca73455dbce43c96885650de9aa4dee7509dd021165df6c30566e95d12800000000000000000000000000000000000000000000000000000000000000600000000000000000000000007e14104e2433fde49c98008911298f069c9de41a00000000000000000000000000000000000000000000000000000000000000010000000000000000000000000000000000000000000000000000000000000020000000000000000000000000b21d8ed1a7e2c7d919f50bc2a4b547bc66faa669000000000000000000000000b21d8ed1a7e2c7d919f50bc2a4b547bc66faa669000000000000000000000000833589fcd6edb6e08f4c7c32d4f71b54bda02913000000000000000000000000833589fcd6edb6e08f4c7c32d4f71b54bda02913000000000000000000000000000000000000000000000000000000000003065500000000000000000000000000000000000000000000000000000000000000e000000000000000000000000000000000000000000000000000000000000000010000000000000000000000000000000000000000000000000000000000000164773054ac0000000000000000000000007e14104e2433fde49c98008911298f069c9de41a0000000000000000000000007bfa7c4f149e7415b73bdedfe609237e29cbf34a000000000000000000000000833589fcd6edb6e08f4c7c32d4f71b54bda02913000000000000000000000000000000000000000000000000000000000002d7c5000000000000000000000000000000000000000000000000000000000000000900000000000000000000000000000000000000000000000000000000698472a800000000000000000000000000000000000000000000000000000000000000e000000000000000000000000000000000000000000000000000000000000000415bf57d1432093d9c0f4b6fabce02fc01256210ae46ccd9a49eea512d2410471f497aeb7d7589782929efee01007c85381c0eb10c280e0e05838b35a9abb041141b0000000000000000000000000000000000000000000000000000000000000000000000000000000000000000000000000000000000000000000000"},{"name":"_extraData","type":"bytes","value":"0x"},{"name":"_gasLimit","type":"uint256","value":"1130000"}]},"l1_gas_price":"146059250","token_transfers":[{"block_hash":"0x89ef42717e84425b781d862f71b418768be51e4c6642e10442063db0599bd079","block_number":41745640,"from":{"ens_domain_name":null,"hash":"0x1493e7B8d4DfADe0a178dAD9335470337A3a219A","implementations":[],"is_contract":true,"is_scam":false,"is_verified":true,"metadata":null,"name":"ReceiverStargateV2","private_tags":[],"proxy_type":null,"public_tags":[],"reputation":"ok","watchlist_names":[]},"log_index":885,"method":null,"timestamp":null,"to":{"ens_domain_name":null,"hash":"0x4DaC9d1769b9b304cb04741DCDEb2FC14aBdF110","implementations":[],"is_contract":true,"is_scam":false,"is_verified":true,"metadata":{"tags":[{"meta":{"tagIcon ":"https://blockscout-icons.s3.us-east-1.amazonaws.com/OLI_tag_logo.svg","textColor":"#C163D4","tooltipAttribution":"https://www.openlabelsinitiative.org?utm_source=blockscout","tooltipAttributionIcon":"https://blockscout-icons.s3.us-east-1.amazonaws.com/OLI_tag_logo.svg","tooltipDescription":"Provided by OLI"},"name":"Executor","ordinal":0,"slug":"executor","tagType":"name"}]},"name":"Executor","private_tags":[],"proxy_type":null,"public_tags":[],"reputation":"ok","watchlist_names":[]},"token":{"address_hash":"0x833589fCD6eDb6E08f4c7C32D4f71b54bdA02913","circulating_market_cap":"70707765068.0142","decimals":"6","exchange_rate":"0.999816","holders_count":"5528743","icon_url":"https://assets.coingecko.com/coins/images/6319/small/USDC.png?1769615602","name":"USDC","reputation":"ok","symbol":"USDC","total_supply":"4214864398578575","type":"ERC-20","volume_24h":"14574708477.783205"},"token_type":"ERC-20","total":{"decimals":"6","value":"221121"},"transaction_hash":"0x61af0e2bc5e7a3665009912dab43e718c77e4ab65f0b124a32cefbd48bb54b20","type":"token_transfer"},{"block_hash":"0x89ef42717e84425b781d862f71b418768be51e4c6642e10442063db0599bd079","block_number":41745640,"from":{"ens_domain_name":null,"hash":"0x4DaC9d1769b9b304cb04741DCDEb2FC14aBdF110","implementations":[],"is_contract":true,"is_scam":false,"is_verified":true,"metadata":{"tags":[{"meta":{"tagIcon ":"https://blockscout-icons.s3.us-east-1.amazonaws.com/OLI_tag_logo.svg","textColor":"#C163D4","tooltipAttribution":"https://www.openlabelsinitiative.org?utm_source=blockscout","tooltipAttributionIcon":"https://blockscout-icons.s3.us-east-1.amazonaws.com/OLI_tag_logo.svg","tooltipDescription":"Provided by OLI"},"name":"Executor","ordinal":0,"slug":"executor","tagType":"name"}]},"name":"Executor","private_tags":[],"proxy_type":null,"public_tags":[],"reputation":"ok","watchlist_names":[]},"log_index":887,"method":null,"timestamp":null,"to":{"ens_domain_name":null,"hash":"0xb21d8Ed1a7e2c7d919f50bC2A4B547BC66fAa669","implementations":[],"is_contract":true,"is_scam":false,"is_verified":true,"metadata":null,"name":"DepositRouter","private_tags":[],"proxy_type":null,"public_tags":[],"reputation":"ok","watchlist_names":[]},"token":{"address_hash":"0x833589fCD6eDb6E08f4c7C32D4f71b54bdA02913","circulating_market_cap":"70707765068.0142","decimals":"6","exchange_rate":"0.999816","holders_count":"5528743","icon_url":"https://assets.coingecko.com/coins/images/6319/small/USDC.png?1769615602","name":"USDC","reputation":"ok","symbol":"USDC","total_supply":"4214864398578575","type":"ERC-20","volume_24h":"14574708477.783205"},"token_type":"ERC-20","total":{"decimals":"6","value":"186309"},"transaction_hash":"0x61af0e2bc5e7a3665009912dab43e718c77e4ab65f0b124a32cefbd48bb54b20","type":"token_transfer"},{"block_hash":"0x89ef42717e84425b781d862f71b418768be51e4c6642e10442063db0599bd079","block_number":41745640,"from":{"ens_domain_name":null,"hash":"0xb21d8Ed1a7e2c7d919f50bC2A4B547BC66fAa669","implementations":[],"is_contract":true,"is_scam":false,"is_verified":true,"metadata":null,"name":"DepositRouter","private_tags":[],"proxy_type":null,"public_tags":[],"reputation":"ok","watchlist_names":[]},"log_index":888,"method":null,"timestamp":null,"to":{"ens_domain_name":null,"hash":"0xBEb2986BD5b7ADDB360D0BbdAD9a7DE21854F427","implementations":[],"is_contract":false,"is_scam":false,"is_verified":false,"metadata":null,"name":null,"private_tags":[],"proxy_type":null,"public_tags":[],"reputation":"ok","watchlist_names":[]},"token":{"address_hash":"0x833589fCD6eDb6E08f4c7C32D4f71b54bdA02913","circulating_market_cap":"70707765068.0142","decimals":"6","exchange_rate":"0.999816","holders_count":"5528743","icon_url":"https://assets.coingecko.com/coins/images/6319/small/USDC.png?1769615602","name":"USDC","reputation":"ok","symbol":"USDC","total_supply":"4214864398578575","type":"ERC-20","volume_24h":"14574708477.783205"},"token_type":"ERC-20","total":{"decimals":"6","value":"186"},"transaction_hash":"0x61af0e2bc5e7a3665009912dab43e718c77e4ab65f0b124a32cefbd48bb54b20","type":"token_transfer"},{"block_hash":"0x89ef42717e84425b781d862f71b418768be51e4c6642e10442063db0599bd079","block_number":41745640,"from":{"ens_domain_name":null,"hash":"0x0000000000000000000000000000000000000000","implementations":[],"is_contract":false,"is_scam":false,"is_verified":false,"metadata":{"tags":[{"meta":{},"name":"Null: 0x000...000","ordinal":10,"slug":"null-0x000000","tagType":"name"},{"meta":{},"name":"Metamask User","ordinal":0,"slug":"metamask-user","tagType":"generic"},{"meta":{},"name":"Imtoken User","ordinal":0,"slug":"imtoken-user","tagType":"generic"},{"meta":{},"name":"Miner","ordinal":0,"slug":"miner","tagType":"generic"},{"meta":{},"name":"Burn","ordinal":0,"slug":"burn","tagType":"generic"},{"meta":{"tagIcon ":"https://blockscout-icons.s3.us-east-1.amazonaws.com/OLI_tag_logo.svg","textColor":"#C163D4","tooltipAttribution":"https://www.openlabelsinitiative.org?utm_source=blockscout","tooltipAttributionIcon":"https://blockscout-icons.s3.us-east-1.amazonaws.com/OLI_tag_logo.svg","tooltipDescription":"Provided by OLI"},"name":"Burn","ordinal":0,"slug":"burn","tagType":"name"},{"meta":{"alertStatus":"info","data":"This address is commonly used by projects to burn tokens (reducing total supply) or mint tokens (increasing total supply)."},"name":"note_0","ordinal":0,"slug":"note0","tagType":"note"},{"meta":{},"name":"Null","ordinal":0,"slug":"null","tagType":"protocol"}]},"name":null,"private_tags":[],"proxy_type":null,"public_tags":[],"reputation":"ok","watchlist_names":[]},"log_index":893,"method":null,"timestamp":null,"to":{"ens_domain_name":null,"hash":"0x2917956eFF0B5eaF030abDB4EF4296DF775009cA","implementations":[],"is_contract":true,"is_scam":false,"is_verified":true,"metadata":null,"name":"ALMProxy","private_tags":[],"proxy_type":null,"public_tags":[],"reputation":"ok","watchlist_names":[]},"token":{"address_hash":"0x7BfA7C4f149E7415b73bdeDfe609237e29CBF34A","circulating_market_cap":null,"decimals":"18","exchange_rate":null,"holders_count":"5630","icon_url":null,"name":"Spark USDC Vault","reputation":"ok","symbol":"sparkUSDC","total_supply":"22521625566782416182292610","type":"ERC-20","volume_24h":null},"token_type":"ERC-20","total":{"decimals":"18","value":"1665118111071818509"},"transaction_hash":"0x61af0e2bc5e7a3665009912dab43e718c77e4ab65f0b124a32cefbd48bb54b20","type":"token_minting"},{"block_hash":"0x89ef42717e84425b781d862f71b418768be51e4c6642e10442063db0599bd079","block_number":41745640,"from":{"ens_domain_name":null,"hash":"0xb21d8Ed1a7e2c7d919f50bC2A4B547BC66fAa669","implementations":[],"is_contract":true,"is_scam":false,"is_verified":true,"metadata":null,"name":"DepositRouter","private_tags":[],"proxy_type":null,"public_tags":[],"reputation":"ok","watchlist_names":[]},"log_index":895,"method":null,"timestamp":null,"to":{"ens_domain_name":null,"hash":"0x7BfA7C4f149E7415b73bdeDfe609237e29CBF34A","implementations":[],"is_contract":true,"is_scam":false,"is_verified":true,"metadata":null,"name":"MetaMorphoV1_1","private_tags":[],"proxy_type":null,"public_tags":[],"reputation":"ok","watchlist_names":[]},"token":{"address_hash":"0x833589fCD6eDb6E08f4c7C32D4f71b54bdA02913","circulating_market_cap":"70707765068.0142","decimals":"6","exchange_rate":"0.999816","holders_count":"5528743","icon_url":"https://assets.coingecko.com/coins/images/6319/small/USDC.png?1769615602","name":"USDC","reputation":"ok","symbol":"USDC","total_supply":"4214864398578575","type":"ERC-20","volume_24h":"14574708477.783205"},"token_type":"ERC-20","total":{"decimals":"6","value":"186123"},"transaction_hash":"0x61af0e2bc5e7a3665009912dab43e718c77e4ab65f0b124a32cefbd48bb54b20","type":"token_transfer"},{"block_hash":"0x89ef42717e84425b781d862f71b418768be51e4c6642e10442063db0599bd079","block_number":41745640,"from":{"ens_domain_name":null,"hash":"0x0000000000000000000000000000000000000000","implementations":[],"is_contract":false,"is_scam":false,"is_verified":false,"metadata":{"tags":[{"meta":{},"name":"Null: 0x000...000","ordinal":10,"slug":"null-0x000000","tagType":"name"},{"meta":{},"name":"Metamask User","ordinal":0,"slug":"metamask-user","tagType":"generic"},{"meta":{},"name":"Imtoken User","ordinal":0,"slug":"imtoken-user","tagType":"generic"},{"meta":{},"name":"Miner","ordinal":0,"slug":"miner","tagType":"generic"},{"meta":{},"name":"Burn","ordinal":0,"slug":"burn","tagType":"generic"},{"meta":{"tagIcon ":"https://blockscout-icons.s3.us-east-1.amazonaws.com/OLI_tag_logo.svg","textColor":"#C163D4","tooltipAttribution":"https://www.openlabelsinitiative.org?utm_source=blockscout","tooltipAttributionIcon":"https://blockscout-icons.s3.us-east-1.amazonaws.com/OLI_tag_logo.svg","tooltipDescription":"Provided by OLI"},"name":"Burn","ordinal":0,"slug":"burn","tagType":"name"},{"meta":{"alertStatus":"info","data":"This address is commonly used by projects to burn tokens (reducing total supply) or mint tokens (increasing total supply)."},"name":"note_0","ordinal":0,"slug":"note0","tagType":"note"},{"meta":{},"name":"Null","ordinal":0,"slug":"null","tagType":"protocol"}]},"name":null,"private_tags":[],"proxy_type":null,"public_tags":[],"reputation":"ok","watchlist_names":[]},"log_index":896,"method":null,"timestamp":null,"to":{"ens_domain_name":null,"hash":"0x7E14104e2433fDe49C98008911298F069C9dE41a","implementations":[{"address_hash":"0x63c0c19a282a1B52b07dD5a65b58948A07DAE32B","name":"EIP7702StatelessDeleGator"}],"is_contract":true,"is_scam":false,"is_verified":true,"metadata":null,"name":null,"private_tags":[],"proxy_type":"eip7702","public_tags":[],"reputation":"ok","watchlist_names":[]},"token":{"address_hash":"0x7BfA7C4f149E7415b73bdeDfe609237e29CBF34A","circulating_market_cap":null,"decimals":"18","exchange_rate":null,"holders_count":"5630","icon_url":null,"name":"Spark USDC Vault","reputation":"ok","symbol":"sparkUSDC","total_supply":"22521625566782416182292610","type":"ERC-20","volume_24h":null},"token_type":"ERC-20","total":{"decimals":"18","value":"176417053856385323"},"transaction_hash":"0x61af0e2bc5e7a3665009912dab43e718c77e4ab65f0b124a32cefbd48bb54b20","type":"token_minting"},{"block_hash":"0x89ef42717e84425b781d862f71b418768be51e4c6642e10442063db0599bd079","block_number":41745640,"from":{"ens_domain_name":null,"hash":"0x7BfA7C4f149E7415b73bdeDfe609237e29CBF34A","implementations":[],"is_contract":true,"is_scam":false,"is_verified":true,"metadata":null,"name":"MetaMorphoV1_1","private_tags":[],"proxy_type":null,"public_tags":[],"reputation":"ok","watchlist_names":[]},"log_index":901,"method":null,"timestamp":null,"to":{"ens_domain_name":null,"hash":"0xBBBBBbbBBb9cC5e90e3b3Af64bdAF62C37EEFFCb","implementations":[],"is_contract":true,"is_scam":false,"is_verified":true,"metadata":{"tags":[{"meta":{"projectName":"Moonwell","tagUrl":"https://app.klerosscout.eth.limo/#/?registry=Single_Tags&itemdetails=0xe1de03fd86947b15c8d389957315331832348c3341c04d715687ce010e3203e7@0x66260c69d03837016d88c9877e61e08ef74c59f2","tooltipDescription":"Official Moonwell router for Morpho markets on Base; listed on the Moonwell Base contract addresses page.","tooltipUrl":"https://moonwell.fi"},"name":"Morpho Markets Router","ordinal":10,"slug":"morpho-markets-router-8453","tagType":"name"},{"meta":{"appID":"morpho","tooltipDescription":"An efficient, secure & flexible lending protocol on Base.","tooltipUrl":"https://morpho.org/"},"name":"Morpho: Morpho Blue","ordinal":10,"slug":"morpho-morpho-blue","tagType":"name"},{"meta":{"appActionButtonText":"Morpho Aave App","appID":"morpho"},"name":"Morpho","ordinal":0,"slug":"morpho","tagType":"protocol"}]},"name":"Morpho","private_tags":[],"proxy_type":null,"public_tags":[],"reputation":"ok","watchlist_names":[]},"token":{"address_hash":"0x833589fCD6eDb6E08f4c7C32D4f71b54bdA02913","circulating_market_cap":"70707765068.0142","decimals":"6","exchange_rate":"0.999816","holders_count":"5528743","icon_url":"https://assets.coingecko.com/coins/images/6319/small/USDC.png?1769615602","name":"USDC","reputation":"ok","symbol":"USDC","total_supply":"4214864398578575","type":"ERC-20","volume_24h":"14574708477.783205"},"token_type":"ERC-20","total":{"decimals":"6","value":"186123"},"transaction_hash":"0x61af0e2bc5e7a3665009912dab43e718c77e4ab65f0b124a32cefbd48bb54b20","type":"token_transfer"},{"block_hash":"0x89ef42717e84425b781d862f71b418768be51e4c6642e10442063db0599bd079","block_number":41745640,"from":{"ens_domain_name":null,"hash":"0x4DaC9d1769b9b304cb04741DCDEb2FC14aBdF110","implementations":[],"is_contract":true,"is_scam":false,"is_verified":true,"metadata":{"tags":[{"meta":{"tagIcon ":"https://blockscout-icons.s3.us-east-1.amazonaws.com/OLI_tag_logo.svg","textColor":"#C163D4","tooltipAttribution":"https://www.openlabelsinitiative.org?utm_source=blockscout","tooltipAttributionIcon":"https://blockscout-icons.s3.us-east-1.amazonaws.com/OLI_tag_logo.svg","tooltipDescription":"Provided by OLI"},"name":"Executor","ordinal":0,"slug":"executor","tagType":"name"}]},"name":"Executor","private_tags":[],"proxy_type":null,"public_tags":[],"reputation":"ok","watchlist_names":[]},"log_index":907,"method":null,"timestamp":null,"to":{"ens_domain_name":null,"hash":"0x7E14104e2433fDe49C98008911298F069C9dE41a","implementations":[{"address_hash":"0x63c0c19a282a1B52b07dD5a65b58948A07DAE32B","name":"EIP7702StatelessDeleGator"}],"is_contract":true,"is_scam":false,"is_verified":true,"metadata":null,"name":null,"private_tags":[],"proxy_type":"eip7702","public_tags":[],"reputation":"ok","watchlist_names":[]},"token":{"address_hash":"0x833589fCD6eDb6E08f4c7C32D4f71b54bdA02913","circulating_market_cap":"70707765068.0142","decimals":"6","exchange_rate":"0.999816","holders_count":"5528743","icon_url":"https://assets.coingecko.com/coins/images/6319/small/USDC.png?1769615602","name":"USDC","reputation":"ok","symbol":"USDC","total_supply":"4214864398578575","type":"ERC-20","volume_24h":"14574708477.783205"},"token_type":"ERC-20","total":{"decimals":"6","value":"34812"},"transaction_hash":"0x61af0e2bc5e7a3665009912dab43e718c77e4ab65f0b124a32cefbd48bb54b20","type":"token_transfer"}],"base_fee_per_gas":"12398476","timestamp":"2026-02-05T08:37:07.000000Z","nonce":12267684,"historic_exchange_rate":"1823.7","transaction_types":["contract_call","token_transfer"],"exchange_rate":"1874.72","block_number":41745640,"has_error_in_internal_transactions":null,"da_footprint_gas_scalar":"139"}