{"l1_gas_used":"9865","priority_fee":"127185418134","raw_input":"0xa83cbaa38ff879f4ec60f6aed69102e28de23f513043d76a0283047f932a58b8b5cffdad00000000000000000000000000000000000000000000000000000000000000a000000000000000000000000000000000000000000000000000000000000000000000000000000000000000007e14104e2433fde49c98008911298f069c9de41a0000000000000000000000000000000000000000000000000000b6b8a7b628070000000000000000000000000000000000000000000000000000000000000003000000000000000000000000000000000000000000000000000000000000006000000000000000000000000000000000000000000000000000000000000001e000000000000000000000000000000000000000000000000000000000000005c00000000000000000000000000a6d96e7f4d7b96cfe42185df61e64d255c12dff0000000000000000000000000a6d96e7f4d7b96cfe42185df61e64d255c12dff000000000000000000000000000000000000000000000000000000000000000000000000000000000000000000000000000000000000000000000000000000000000000000000000000000000000000000000000000000000000b6b8a7b6280700000000000000000000000000000000000000000000000000000000000000e000000000000000000000000000000000000000000000000000000000000000010000000000000000000000000000000000000000000000000000000000000064e0cbc5f2000000000000000000000000000000000000000000000000000000000000000000000000000000000000000000000000000000000000000000000074f10f2ce6000000000000000000000000b9c0de368bece5e76b52545a8e377a4c118f597b00000000000000000000000000000000000000000000000000000000000000000000000000000000ac4c6e212a361c968f1725b4d055b47e63f80b75000000000000000000000000ac4c6e212a361c968f1725b4d055b47e63f80b750000000000000000000000000000000000000000000000000000000000000000000000000000000000000000833589fcd6edb6e08f4c7c32d4f71b54bda029130000000000000000000000000000000000000000000000000000b643b6a6fb2100000000000000000000000000000000000000000000000000000000000000e0000000000000000000000000000000000000000000000000000000000000000000000000000000000000000000000000000000000000000000000000000002c45f3bd1c8000000000000000000000000eeeeeeeeeeeeeeeeeeeeeeeeeeeeeeeeeeeeeeee0000000000000000000000000000000000000000000000000000b643b6a6fb210000000000000000000000004dac9d1769b9b304cb04741dcdeb2fc14abdf110000000000000000000000000833589fcd6edb6e08f4c7c32d4f71b54bda02913000000000000000000000000000000000000000000000000000000000006bb50000000000000000000000000d2b37ade14708bf18904047b1e31f8166d39612b00000000000000000000000000000000000000000000000000000000000000e000000000000000000000000000000000000000000000000000000000000001a46be92b89000000000000000000000000eeeeeeeeeeeeeeeeeeeeeeeeeeeeeeeeeeeeeeee0000000000000000000000000000000000000000000000000000b643b6a6fb21000000000000000000000000833589fcd6edb6e08f4c7c32d4f71b54bda02913000000000000000000000000000000000000000000000000000000000006c3f90000000000000000000000004dac9d1769b9b304cb04741dcdeb2fc14abdf110000000000000000000000000000000000000000000000000000000000000010000000000000000000000000000000000000000000000000000000000000000010000000000000000000000000000000000000000000000000000000000000002000000000000000000000000000000000000000000000000000000000000007f019c2528d2d300020301ffff0201d2b37ade14708bf18904047b1e31f8166d39612b420000000000000000000000000000000000000601420000000000000000000000000000000000000601ffff01dbc6998296caa1652a810dc8d3baf4a8294330f101d2b37ade14708bf18904047b1e31f8166d39612b00b64420d87f03000000000000000000000000000000000000000000000000000000000000000000000000000000000000000000000000000000000000000000000000000000000000000000b21d8ed1a7e2c7d919f50bc2a4b547bc66faa669000000000000000000000000b21d8ed1a7e2c7d919f50bc2a4b547bc66faa669000000000000000000000000833589fcd6edb6e08f4c7c32d4f71b54bda02913000000000000000000000000833589fcd6edb6e08f4c7c32d4f71b54bda02913000000000000000000000000000000000000000000000000000000000006bb5000000000000000000000000000000000000000000000000000000000000000e000000000000000000000000000000000000000000000000000000000000000000000000000000000000000000000000000000000000000000000000000000164773054ac0000000000000000000000007e14104e2433fde49c98008911298f069c9de41a0000000000000000000000007bfa7c4f149e7415b73bdedfe609237e29cbf34a000000000000000000000000833589fcd6edb6e08f4c7c32d4f71b54bda02913000000000000000000000000000000000000000000000000000000000006b9670000000000000000000000000000000000000000000000000000000000000000000000000000000000000000000000000000000000000000000000006982665000000000000000000000000000000000000000000000000000000000000000e00000000000000000000000000000000000000000000000000000000000000041674edbf981395f8bcdaee6d3ca87596292753440a3a464022d2ba85dd67185467d794cff7ae03642ce034935015323bd6faecc1420abc9476cc52ff50a94cbba1c0000000000000000000000000000000000000000000000000000000000000000000000000000000000000000000000000000000000000000000000","is_pending_update":false,"op_withdrawals":[],"result":"success","hash":"0xdb6786a2f96cbc0f8efbb61e91f39c743557acfa6ed99716b6dc492a8a340471","max_fee_per_gas":"5042198","revert_reason":null,"confirmation_duration":[0,2.0e3],"transaction_burnt_fee":"4521186664878","type":2,"token_transfers_overflow":true,"confirmations":102030,"position":238,"max_priority_fee_per_gas":"5042198","transaction_tag":null,"created_contract":null,"value":"200904203970567","l1_fee_scalar":"0","from":{"ens_domain_name":null,"hash":"0x7E14104e2433fDe49C98008911298F069C9dE41a","implementations":[{"address_hash":"0x63c0c19a282a1B52b07dD5a65b58948A07DAE32B","name":"EIP7702StatelessDeleGator"}],"is_contract":true,"is_scam":false,"is_verified":true,"metadata":null,"name":null,"private_tags":[],"proxy_type":"eip7702","public_tags":[],"reputation":"ok","watchlist_names":[]},"gas_used":"921894","status":"ok","to":{"ens_domain_name":null,"hash":"0x4DaC9d1769b9b304cb04741DCDEb2FC14aBdF110","implementations":[],"is_contract":true,"is_scam":false,"is_verified":true,"metadata":{"tags":[{"meta":{"tagIcon ":"https://blockscout-icons.s3.us-east-1.amazonaws.com/OLI_tag_logo.svg","textColor":"#C163D4","tooltipAttribution":"https://www.openlabelsinitiative.org?utm_source=blockscout","tooltipAttributionIcon":"https://blockscout-icons.s3.us-east-1.amazonaws.com/OLI_tag_logo.svg","tooltipDescription":"Provided by OLI"},"name":"Executor","ordinal":0,"slug":"executor","tagType":"name"}]},"name":"Executor","private_tags":[],"proxy_type":null,"public_tags":[],"reputation":"ok","watchlist_names":[]},"authorization_list":[],"l1_fee":"35935927364","method":"swapAndExecute","fee":{"type":"actual","value":"4684308010376"},"actions":[],"gas_limit":"1901500","gas_price":"5042198","decoded_input":{"method_call":"swapAndExecute(bytes32 _transactionId, (address,address,address,address,uint256,bytes,bool)[] _swapData, address _transferredAssetId, address _receiver, uint256 _amount)","method_id":"a83cbaa3","parameters":[{"name":"_transactionId","type":"bytes32","value":"0x8ff879f4ec60f6aed69102e28de23f513043d76a0283047f932a58b8b5cffdad"},{"name":"_swapData","type":"(address,address,address,address,uint256,bytes,bool)[]","value":[["0x0A6d96E7f4D7b96CFE42185DF61E64d255c12DFf","0x0A6d96E7f4D7b96CFE42185DF61E64d255c12DFf","0x0000000000000000000000000000000000000000","0x0000000000000000000000000000000000000000","200904203970567","0xe0cbc5f2000000000000000000000000000000000000000000000000000000000000000000000000000000000000000000000000000000000000000000000074f10f2ce6000000000000000000000000b9c0de368bece5e76b52545a8e377a4c118f597b","true"],["0xAC4c6e212A361c968F1725b4d055b47E63F80b75","0xAC4c6e212A361c968F1725b4d055b47E63F80b75","0x0000000000000000000000000000000000000000","0x833589fCD6eDb6E08f4c7C32D4f71b54bdA02913","200401943460641","0x5f3bd1c8000000000000000000000000eeeeeeeeeeeeeeeeeeeeeeeeeeeeeeeeeeeeeeee0000000000000000000000000000000000000000000000000000b643b6a6fb210000000000000000000000004dac9d1769b9b304cb04741dcdeb2fc14abdf110000000000000000000000000833589fcd6edb6e08f4c7c32d4f71b54bda02913000000000000000000000000000000000000000000000000000000000006bb50000000000000000000000000d2b37ade14708bf18904047b1e31f8166d39612b00000000000000000000000000000000000000000000000000000000000000e000000000000000000000000000000000000000000000000000000000000001a46be92b89000000000000000000000000eeeeeeeeeeeeeeeeeeeeeeeeeeeeeeeeeeeeeeee0000000000000000000000000000000000000000000000000000b643b6a6fb21000000000000000000000000833589fcd6edb6e08f4c7c32d4f71b54bda02913000000000000000000000000000000000000000000000000000000000006c3f90000000000000000000000004dac9d1769b9b304cb04741dcdeb2fc14abdf110000000000000000000000000000000000000000000000000000000000000010000000000000000000000000000000000000000000000000000000000000000010000000000000000000000000000000000000000000000000000000000000002000000000000000000000000000000000000000000000000000000000000007f019c2528d2d300020301ffff0201d2b37ade14708bf18904047b1e31f8166d39612b420000000000000000000000000000000000000601420000000000000000000000000000000000000601ffff01dbc6998296caa1652a810dc8d3baf4a8294330f101d2b37ade14708bf18904047b1e31f8166d39612b00b64420d87f030000000000000000000000000000000000000000000000000000000000","false"],["0xb21d8Ed1a7e2c7d919f50bC2A4B547BC66fAa669","0xb21d8Ed1a7e2c7d919f50bC2A4B547BC66fAa669","0x833589fCD6eDb6E08f4c7C32D4f71b54bdA02913","0x833589fCD6eDb6E08f4c7C32D4f71b54bdA02913","441168","0x773054ac0000000000000000000000007e14104e2433fde49c98008911298f069c9de41a0000000000000000000000007bfa7c4f149e7415b73bdedfe609237e29cbf34a000000000000000000000000833589fcd6edb6e08f4c7c32d4f71b54bda02913000000000000000000000000000000000000000000000000000000000006b9670000000000000000000000000000000000000000000000000000000000000000000000000000000000000000000000000000000000000000000000006982665000000000000000000000000000000000000000000000000000000000000000e00000000000000000000000000000000000000000000000000000000000000041674edbf981395f8bcdaee6d3ca87596292753440a3a464022d2ba85dd67185467d794cff7ae03642ce034935015323bd6faecc1420abc9476cc52ff50a94cbba1c00000000000000000000000000000000000000000000000000000000000000","false"]]},{"name":"_transferredAssetId","type":"address","value":"0x0000000000000000000000000000000000000000"},{"name":"_receiver","type":"address","value":"0x7E14104e2433fDe49C98008911298F069C9dE41a"},{"name":"_amount","type":"uint256","value":"200904203970567"}]},"l1_gas_price":"571382546","token_transfers":[{"block_hash":"0x4b40f9f06cc13357e1ace87824f187478da8cefaafda938e46ce2a9b8997c8cf","block_number":41680312,"from":{"ens_domain_name":null,"hash":"0x0000000000000000000000000000000000000000","implementations":[],"is_contract":false,"is_scam":false,"is_verified":false,"metadata":{"tags":[{"meta":{},"name":"Null: 0x000...000","ordinal":10,"slug":"null-0x000000","tagType":"name"},{"meta":{},"name":"Metamask User","ordinal":0,"slug":"metamask-user","tagType":"generic"},{"meta":{},"name":"Imtoken User","ordinal":0,"slug":"imtoken-user","tagType":"generic"},{"meta":{},"name":"Miner","ordinal":0,"slug":"miner","tagType":"generic"},{"meta":{},"name":"Burn","ordinal":0,"slug":"burn","tagType":"generic"},{"meta":{"tagIcon ":"https://blockscout-icons.s3.us-east-1.amazonaws.com/OLI_tag_logo.svg","textColor":"#C163D4","tooltipAttribution":"https://www.openlabelsinitiative.org?utm_source=blockscout","tooltipAttributionIcon":"https://blockscout-icons.s3.us-east-1.amazonaws.com/OLI_tag_logo.svg","tooltipDescription":"Provided by OLI"},"name":"Burn","ordinal":0,"slug":"burn","tagType":"name"},{"meta":{"alertStatus":"info","data":"This address is commonly used by projects to burn tokens (reducing total supply) or mint tokens (increasing total supply)."},"name":"note_0","ordinal":0,"slug":"note0","tagType":"note"},{"meta":{},"name":"Null","ordinal":0,"slug":"null","tagType":"protocol"}]},"name":null,"private_tags":[],"proxy_type":null,"public_tags":[],"reputation":"ok","watchlist_names":[]},"log_index":908,"method":null,"timestamp":null,"to":{"ens_domain_name":null,"hash":"0xd2b37aDE14708bf18904047b1E31F8166d39612b","implementations":[],"is_contract":true,"is_scam":false,"is_verified":false,"metadata":null,"name":null,"private_tags":[],"proxy_type":null,"public_tags":[],"reputation":"ok","watchlist_names":[]},"token":{"address_hash":"0x4200000000000000000000000000000000000006","circulating_market_cap":"444075378.58776295","decimals":"18","exchange_rate":"1899.84","holders_count":"3176868","icon_url":"https://assets.coingecko.com/coins/images/39810/small/weth.png?1724139790","name":"L2 Standard Bridged WETH (Base)","reputation":"ok","symbol":"WETH","total_supply":"239946648097944223516040","type":"ERC-20","volume_24h":"1780510063.6268911"},"token_type":"ERC-20","total":{"decimals":"18","value":"200401943460641"},"transaction_hash":"0xdb6786a2f96cbc0f8efbb61e91f39c743557acfa6ed99716b6dc492a8a340471","type":"token_minting"},{"block_hash":"0x4b40f9f06cc13357e1ace87824f187478da8cefaafda938e46ce2a9b8997c8cf","block_number":41680312,"from":{"ens_domain_name":null,"hash":"0xdbc6998296caA1652A810dc8D3BaF4A8294330f1","implementations":[{"address_hash":"0xeC8E5342B19977B4eF8892e02D8DAEcfa1315831","name":"CLPool"}],"is_contract":true,"is_scam":false,"is_verified":true,"metadata":null,"name":null,"private_tags":[],"proxy_type":"eip1167","public_tags":[],"reputation":"ok","watchlist_names":[]},"log_index":909,"method":null,"timestamp":null,"to":{"ens_domain_name":null,"hash":"0xd2b37aDE14708bf18904047b1E31F8166d39612b","implementations":[],"is_contract":true,"is_scam":false,"is_verified":false,"metadata":null,"name":null,"private_tags":[],"proxy_type":null,"public_tags":[],"reputation":"ok","watchlist_names":[]},"token":{"address_hash":"0x833589fCD6eDb6E08f4c7C32D4f71b54bdA02913","circulating_market_cap":"70707765068.0142","decimals":"6","exchange_rate":"0.999816","holders_count":"5528742","icon_url":"https://assets.coingecko.com/coins/images/6319/small/USDC.png?1769615602","name":"USDC","reputation":"ok","symbol":"USDC","total_supply":"4214864398578575","type":"ERC-20","volume_24h":"14574708477.783205"},"token_type":"ERC-20","total":{"decimals":"6","value":"443265"},"transaction_hash":"0xdb6786a2f96cbc0f8efbb61e91f39c743557acfa6ed99716b6dc492a8a340471","type":"token_transfer"},{"block_hash":"0x4b40f9f06cc13357e1ace87824f187478da8cefaafda938e46ce2a9b8997c8cf","block_number":41680312,"from":{"ens_domain_name":null,"hash":"0xd2b37aDE14708bf18904047b1E31F8166d39612b","implementations":[],"is_contract":true,"is_scam":false,"is_verified":false,"metadata":null,"name":null,"private_tags":[],"proxy_type":null,"public_tags":[],"reputation":"ok","watchlist_names":[]},"log_index":910,"method":null,"timestamp":null,"to":{"ens_domain_name":null,"hash":"0xdbc6998296caA1652A810dc8D3BaF4A8294330f1","implementations":[{"address_hash":"0xeC8E5342B19977B4eF8892e02D8DAEcfa1315831","name":"CLPool"}],"is_contract":true,"is_scam":false,"is_verified":true,"metadata":null,"name":null,"private_tags":[],"proxy_type":"eip1167","public_tags":[],"reputation":"ok","watchlist_names":[]},"token":{"address_hash":"0x4200000000000000000000000000000000000006","circulating_market_cap":"444075378.58776295","decimals":"18","exchange_rate":"1899.84","holders_count":"3176868","icon_url":"https://assets.coingecko.com/coins/images/39810/small/weth.png?1724139790","name":"L2 Standard Bridged WETH (Base)","reputation":"ok","symbol":"WETH","total_supply":"239946648097944223516040","type":"ERC-20","volume_24h":"1780510063.6268911"},"token_type":"ERC-20","total":{"decimals":"18","value":"200401943460641"},"transaction_hash":"0xdb6786a2f96cbc0f8efbb61e91f39c743557acfa6ed99716b6dc492a8a340471","type":"token_transfer"},{"block_hash":"0x4b40f9f06cc13357e1ace87824f187478da8cefaafda938e46ce2a9b8997c8cf","block_number":41680312,"from":{"ens_domain_name":null,"hash":"0xd2b37aDE14708bf18904047b1E31F8166d39612b","implementations":[],"is_contract":true,"is_scam":false,"is_verified":false,"metadata":null,"name":null,"private_tags":[],"proxy_type":null,"public_tags":[],"reputation":"ok","watchlist_names":[]},"log_index":912,"method":null,"timestamp":null,"to":{"ens_domain_name":null,"hash":"0x4DaC9d1769b9b304cb04741DCDEb2FC14aBdF110","implementations":[],"is_contract":true,"is_scam":false,"is_verified":true,"metadata":{"tags":[{"meta":{"tagIcon ":"https://blockscout-icons.s3.us-east-1.amazonaws.com/OLI_tag_logo.svg","textColor":"#C163D4","tooltipAttribution":"https://www.openlabelsinitiative.org?utm_source=blockscout","tooltipAttributionIcon":"https://blockscout-icons.s3.us-east-1.amazonaws.com/OLI_tag_logo.svg","tooltipDescription":"Provided by OLI"},"name":"Executor","ordinal":0,"slug":"executor","tagType":"name"}]},"name":"Executor","private_tags":[],"proxy_type":null,"public_tags":[],"reputation":"ok","watchlist_names":[]},"token":{"address_hash":"0x833589fCD6eDb6E08f4c7C32D4f71b54bdA02913","circulating_market_cap":"70707765068.0142","decimals":"6","exchange_rate":"0.999816","holders_count":"5528742","icon_url":"https://assets.coingecko.com/coins/images/6319/small/USDC.png?1769615602","name":"USDC","reputation":"ok","symbol":"USDC","total_supply":"4214864398578575","type":"ERC-20","volume_24h":"14574708477.783205"},"token_type":"ERC-20","total":{"decimals":"6","value":"443265"},"transaction_hash":"0xdb6786a2f96cbc0f8efbb61e91f39c743557acfa6ed99716b6dc492a8a340471","type":"token_transfer"},{"block_hash":"0x4b40f9f06cc13357e1ace87824f187478da8cefaafda938e46ce2a9b8997c8cf","block_number":41680312,"from":{"ens_domain_name":null,"hash":"0x4DaC9d1769b9b304cb04741DCDEb2FC14aBdF110","implementations":[],"is_contract":true,"is_scam":false,"is_verified":true,"metadata":{"tags":[{"meta":{"tagIcon ":"https://blockscout-icons.s3.us-east-1.amazonaws.com/OLI_tag_logo.svg","textColor":"#C163D4","tooltipAttribution":"https://www.openlabelsinitiative.org?utm_source=blockscout","tooltipAttributionIcon":"https://blockscout-icons.s3.us-east-1.amazonaws.com/OLI_tag_logo.svg","tooltipDescription":"Provided by OLI"},"name":"Executor","ordinal":0,"slug":"executor","tagType":"name"}]},"name":"Executor","private_tags":[],"proxy_type":null,"public_tags":[],"reputation":"ok","watchlist_names":[]},"log_index":918,"method":null,"timestamp":null,"to":{"ens_domain_name":null,"hash":"0xb21d8Ed1a7e2c7d919f50bC2A4B547BC66fAa669","implementations":[],"is_contract":true,"is_scam":false,"is_verified":true,"metadata":null,"name":"DepositRouter","private_tags":[],"proxy_type":null,"public_tags":[],"reputation":"ok","watchlist_names":[]},"token":{"address_hash":"0x833589fCD6eDb6E08f4c7C32D4f71b54bdA02913","circulating_market_cap":"70707765068.0142","decimals":"6","exchange_rate":"0.999816","holders_count":"5528742","icon_url":"https://assets.coingecko.com/coins/images/6319/small/USDC.png?1769615602","name":"USDC","reputation":"ok","symbol":"USDC","total_supply":"4214864398578575","type":"ERC-20","volume_24h":"14574708477.783205"},"token_type":"ERC-20","total":{"decimals":"6","value":"440679"},"transaction_hash":"0xdb6786a2f96cbc0f8efbb61e91f39c743557acfa6ed99716b6dc492a8a340471","type":"token_transfer"},{"block_hash":"0x4b40f9f06cc13357e1ace87824f187478da8cefaafda938e46ce2a9b8997c8cf","block_number":41680312,"from":{"ens_domain_name":null,"hash":"0xb21d8Ed1a7e2c7d919f50bC2A4B547BC66fAa669","implementations":[],"is_contract":true,"is_scam":false,"is_verified":true,"metadata":null,"name":"DepositRouter","private_tags":[],"proxy_type":null,"public_tags":[],"reputation":"ok","watchlist_names":[]},"log_index":919,"method":null,"timestamp":null,"to":{"ens_domain_name":null,"hash":"0xBEb2986BD5b7ADDB360D0BbdAD9a7DE21854F427","implementations":[],"is_contract":false,"is_scam":false,"is_verified":false,"metadata":null,"name":null,"private_tags":[],"proxy_type":null,"public_tags":[],"reputation":"ok","watchlist_names":[]},"token":{"address_hash":"0x833589fCD6eDb6E08f4c7C32D4f71b54bdA02913","circulating_market_cap":"70707765068.0142","decimals":"6","exchange_rate":"0.999816","holders_count":"5528742","icon_url":"https://assets.coingecko.com/coins/images/6319/small/USDC.png?1769615602","name":"USDC","reputation":"ok","symbol":"USDC","total_supply":"4214864398578575","type":"ERC-20","volume_24h":"14574708477.783205"},"token_type":"ERC-20","total":{"decimals":"6","value":"440"},"transaction_hash":"0xdb6786a2f96cbc0f8efbb61e91f39c743557acfa6ed99716b6dc492a8a340471","type":"token_transfer"},{"block_hash":"0x4b40f9f06cc13357e1ace87824f187478da8cefaafda938e46ce2a9b8997c8cf","block_number":41680312,"from":{"ens_domain_name":null,"hash":"0x0000000000000000000000000000000000000000","implementations":[],"is_contract":false,"is_scam":false,"is_verified":false,"metadata":{"tags":[{"meta":{},"name":"Null: 0x000...000","ordinal":10,"slug":"null-0x000000","tagType":"name"},{"meta":{},"name":"Metamask User","ordinal":0,"slug":"metamask-user","tagType":"generic"},{"meta":{},"name":"Imtoken User","ordinal":0,"slug":"imtoken-user","tagType":"generic"},{"meta":{},"name":"Miner","ordinal":0,"slug":"miner","tagType":"generic"},{"meta":{},"name":"Burn","ordinal":0,"slug":"burn","tagType":"generic"},{"meta":{"tagIcon ":"https://blockscout-icons.s3.us-east-1.amazonaws.com/OLI_tag_logo.svg","textColor":"#C163D4","tooltipAttribution":"https://www.openlabelsinitiative.org?utm_source=blockscout","tooltipAttributionIcon":"https://blockscout-icons.s3.us-east-1.amazonaws.com/OLI_tag_logo.svg","tooltipDescription":"Provided by OLI"},"name":"Burn","ordinal":0,"slug":"burn","tagType":"name"},{"meta":{"alertStatus":"info","data":"This address is commonly used by projects to burn tokens (reducing total supply) or mint tokens (increasing total supply)."},"name":"note_0","ordinal":0,"slug":"note0","tagType":"note"},{"meta":{},"name":"Null","ordinal":0,"slug":"null","tagType":"protocol"}]},"name":null,"private_tags":[],"proxy_type":null,"public_tags":[],"reputation":"ok","watchlist_names":[]},"log_index":924,"method":null,"timestamp":null,"to":{"ens_domain_name":null,"hash":"0x2917956eFF0B5eaF030abDB4EF4296DF775009cA","implementations":[],"is_contract":true,"is_scam":false,"is_verified":true,"metadata":null,"name":"ALMProxy","private_tags":[],"proxy_type":null,"public_tags":[],"reputation":"ok","watchlist_names":[]},"token":{"address_hash":"0x7BfA7C4f149E7415b73bdeDfe609237e29CBF34A","circulating_market_cap":null,"decimals":"18","exchange_rate":null,"holders_count":"5630","icon_url":null,"name":"Spark USDC Vault","reputation":"ok","symbol":"sparkUSDC","total_supply":"22521625566782416182292610","type":"ERC-20","volume_24h":null},"token_type":"ERC-20","total":{"decimals":"18","value":"26104827306628759"},"transaction_hash":"0xdb6786a2f96cbc0f8efbb61e91f39c743557acfa6ed99716b6dc492a8a340471","type":"token_minting"},{"block_hash":"0x4b40f9f06cc13357e1ace87824f187478da8cefaafda938e46ce2a9b8997c8cf","block_number":41680312,"from":{"ens_domain_name":null,"hash":"0xb21d8Ed1a7e2c7d919f50bC2A4B547BC66fAa669","implementations":[],"is_contract":true,"is_scam":false,"is_verified":true,"metadata":null,"name":"DepositRouter","private_tags":[],"proxy_type":null,"public_tags":[],"reputation":"ok","watchlist_names":[]},"log_index":926,"method":null,"timestamp":null,"to":{"ens_domain_name":null,"hash":"0x7BfA7C4f149E7415b73bdeDfe609237e29CBF34A","implementations":[],"is_contract":true,"is_scam":false,"is_verified":true,"metadata":null,"name":"MetaMorphoV1_1","private_tags":[],"proxy_type":null,"public_tags":[],"reputation":"ok","watchlist_names":[]},"token":{"address_hash":"0x833589fCD6eDb6E08f4c7C32D4f71b54bdA02913","circulating_market_cap":"70707765068.0142","decimals":"6","exchange_rate":"0.999816","holders_count":"5528742","icon_url":"https://assets.coingecko.com/coins/images/6319/small/USDC.png?1769615602","name":"USDC","reputation":"ok","symbol":"USDC","total_supply":"4214864398578575","type":"ERC-20","volume_24h":"14574708477.783205"},"token_type":"ERC-20","total":{"decimals":"6","value":"440239"},"transaction_hash":"0xdb6786a2f96cbc0f8efbb61e91f39c743557acfa6ed99716b6dc492a8a340471","type":"token_transfer"},{"block_hash":"0x4b40f9f06cc13357e1ace87824f187478da8cefaafda938e46ce2a9b8997c8cf","block_number":41680312,"from":{"ens_domain_name":null,"hash":"0x0000000000000000000000000000000000000000","implementations":[],"is_contract":false,"is_scam":false,"is_verified":false,"metadata":{"tags":[{"meta":{},"name":"Null: 0x000...000","ordinal":10,"slug":"null-0x000000","tagType":"name"},{"meta":{},"name":"Metamask User","ordinal":0,"slug":"metamask-user","tagType":"generic"},{"meta":{},"name":"Imtoken User","ordinal":0,"slug":"imtoken-user","tagType":"generic"},{"meta":{},"name":"Miner","ordinal":0,"slug":"miner","tagType":"generic"},{"meta":{},"name":"Burn","ordinal":0,"slug":"burn","tagType":"generic"},{"meta":{"tagIcon ":"https://blockscout-icons.s3.us-east-1.amazonaws.com/OLI_tag_logo.svg","textColor":"#C163D4","tooltipAttribution":"https://www.openlabelsinitiative.org?utm_source=blockscout","tooltipAttributionIcon":"https://blockscout-icons.s3.us-east-1.amazonaws.com/OLI_tag_logo.svg","tooltipDescription":"Provided by OLI"},"name":"Burn","ordinal":0,"slug":"burn","tagType":"name"},{"meta":{"alertStatus":"info","data":"This address is commonly used by projects to burn tokens (reducing total supply) or mint tokens (increasing total supply)."},"name":"note_0","ordinal":0,"slug":"note0","tagType":"note"},{"meta":{},"name":"Null","ordinal":0,"slug":"null","tagType":"protocol"}]},"name":null,"private_tags":[],"proxy_type":null,"public_tags":[],"reputation":"ok","watchlist_names":[]},"log_index":927,"method":null,"timestamp":null,"to":{"ens_domain_name":null,"hash":"0x7E14104e2433fDe49C98008911298F069C9dE41a","implementations":[{"address_hash":"0x63c0c19a282a1B52b07dD5a65b58948A07DAE32B","name":"EIP7702StatelessDeleGator"}],"is_contract":true,"is_scam":false,"is_verified":true,"metadata":null,"name":null,"private_tags":[],"proxy_type":"eip7702","public_tags":[],"reputation":"ok","watchlist_names":[]},"token":{"address_hash":"0x7BfA7C4f149E7415b73bdeDfe609237e29CBF34A","circulating_market_cap":null,"decimals":"18","exchange_rate":null,"holders_count":"5630","icon_url":null,"name":"Spark USDC Vault","reputation":"ok","symbol":"sparkUSDC","total_supply":"22521625566782416182292610","type":"ERC-20","volume_24h":null},"token_type":"ERC-20","total":{"decimals":"18","value":"417342596094089346"},"transaction_hash":"0xdb6786a2f96cbc0f8efbb61e91f39c743557acfa6ed99716b6dc492a8a340471","type":"token_minting"},{"block_hash":"0x4b40f9f06cc13357e1ace87824f187478da8cefaafda938e46ce2a9b8997c8cf","block_number":41680312,"from":{"ens_domain_name":null,"hash":"0x7BfA7C4f149E7415b73bdeDfe609237e29CBF34A","implementations":[],"is_contract":true,"is_scam":false,"is_verified":true,"metadata":null,"name":"MetaMorphoV1_1","private_tags":[],"proxy_type":null,"public_tags":[],"reputation":"ok","watchlist_names":[]},"log_index":932,"method":null,"timestamp":null,"to":{"ens_domain_name":null,"hash":"0xBBBBBbbBBb9cC5e90e3b3Af64bdAF62C37EEFFCb","implementations":[],"is_contract":true,"is_scam":false,"is_verified":true,"metadata":{"tags":[{"meta":{"projectName":"Moonwell","tagUrl":"https://app.klerosscout.eth.limo/#/?registry=Single_Tags&itemdetails=0xe1de03fd86947b15c8d389957315331832348c3341c04d715687ce010e3203e7@0x66260c69d03837016d88c9877e61e08ef74c59f2","tooltipDescription":"Official Moonwell router for Morpho markets on Base; listed on the Moonwell Base contract addresses page.","tooltipUrl":"https://moonwell.fi"},"name":"Morpho Markets Router","ordinal":10,"slug":"morpho-markets-router-8453","tagType":"name"},{"meta":{"appID":"morpho","tooltipDescription":"An efficient, secure & flexible lending protocol on Base.","tooltipUrl":"https://morpho.org/"},"name":"Morpho: Morpho Blue","ordinal":10,"slug":"morpho-morpho-blue","tagType":"name"},{"meta":{"appActionButtonText":"Morpho Aave App","appID":"morpho-aave-app"},"name":"Morpho","ordinal":0,"slug":"morpho","tagType":"protocol"}]},"name":"Morpho","private_tags":[],"proxy_type":null,"public_tags":[],"reputation":"ok","watchlist_names":[]},"token":{"address_hash":"0x833589fCD6eDb6E08f4c7C32D4f71b54bdA02913","circulating_market_cap":"70707765068.0142","decimals":"6","exchange_rate":"0.999816","holders_count":"5528742","icon_url":"https://assets.coingecko.com/coins/images/6319/small/USDC.png?1769615602","name":"USDC","reputation":"ok","symbol":"USDC","total_supply":"4214864398578575","type":"ERC-20","volume_24h":"14574708477.783205"},"token_type":"ERC-20","total":{"decimals":"6","value":"440239"},"transaction_hash":"0xdb6786a2f96cbc0f8efbb61e91f39c743557acfa6ed99716b6dc492a8a340471","type":"token_transfer"}],"base_fee_per_gas":"4904237","timestamp":"2026-02-03T20:19:31.000000Z","nonce":46,"historic_exchange_rate":"2231.09","transaction_types":["coin_transfer","contract_call","token_transfer"],"exchange_rate":"1875.87","block_number":41680312,"has_error_in_internal_transactions":null,"da_footprint_gas_scalar":"139"}